:020000040800F2
:10000000000001206D960008A59600085108000820
:10001000590800086108000869080008000000008D
:10002000000000000000000000000000655E000805
:10003000A596000800000000FD5E00080D5F0008A6
:10004000A5960008A5960008A5960008A5960008A4
:10005000A5960008A5960008A5960008A596000894
:10006000A5960008A5960008A5960008A596000884
:10007000A5960008A5960008A5960008A596000874
:10008000A5960008A5960008A5960008C5C1000819
:10009000B1C10008A5960008D9C10008A5960008BE
:1000A000A5960008A5960008A5960008A596000844
:1000B000A59600080000000000000000A5960008BA
:1000C000A5960008A5960008A5960008A596000824
:1000D000A5960008A5960008A5960008A596000814
:1000E000A5960008A596000800000000000000008A
:1000F0000000000000000000000000000000000000
:1001000000000000A596000800000000A596000869
:100110000000000000000000A5960008A596000859
:10012000A5960008A5960008A5960008A5960008C3
:10013000A59600080000000000000000000000007C
:10014000A5960008A5960008A5960008A5960008A3
:10015000A5960008A5960008A5960008A596000893
:10016000A5960008A5960008A596000800000000C6
:10017000A5960008A5960008A596000800000000B6
:10018000A5960008A5960008A596000810B5054C90
:10019000237833B9044B13B10448AFF30080012333
:1001A000237010BD080D0020000000003C760108FF
:1001B00008B5034B1BB103490348AFF3008008BDEA
:1001C000000000000C0D00203C760108154B002BB0
:1001D00008BF134B9D46A3F5803A00218B460F467E
:1001E0001348144A121A0EF00FFE0F4B002B00D0CA
:1001F00098470E4B002B00D09847002000210400A8
:100200000D000D48002802D00C4804F0F5FD0EF05A
:1002100005F92000290005F0CFFB04F0E3FD00BF45
:10022000000008000000012000000000DD58000868
:10023000080D0020C82D0020F94D00080000000026
:1002400082B001900091009B002B05D0019B9B6820
:10025000019A12681A6004E0019BDB68019A126837
:100260001A6000BF02B0704782B00190019B5B68CA
:100270001A68019B1B681340002B01D0012300E08A
:100280000023184602B0704700B583B001900B46BA
:10029000ADF80230019B1A4600231360536093604F
:1002A000D360136153619361019BBDF90220114634
:1002B000184601F0DCFF019B184603B05DF804FB13
:1002C00000B583B001900091019B00991846FFF79B
:1002D000B7FF00BF03B05DF804FB00B583B0019029
:1002E000019B1846FFF7C0FF0346184603B05DF8B0
:1002F00004FB00B583B00190009100990198FFF7CD
:10030000DFFF019B184603B05DF804FB00B583B026
:1003100001900198FFF7E1FF0346184603B05DF82E
:1003200004FB000000B585B001900091019B0822FC
:1003300083F89520019B009AC3F89820019B93F8BD
:1003400095301A463A4B9A4204D813465B00134440
:10035000DB0001E04FF0FF33184604F0D1FD034607
:100360001A46019BC3F89020019B4033184604F0C5
:10037000CBFF30480EF0AEFD019B1B6C19462E489A
:100380000EF0A8FD019B5B6C19462C480EF0A2FDF7
:10039000019B93F84830194629480EF09BFD019BBC
:1003A000DB6C194627480EF095FD00230393039B51
:1003B000032B19DC019B039A183253F82230002BCF
:1003C0000ED0019B039A143253F82210019B039A1A
:1003D000183253F822300A4603991B480EF07AFD72
:1003E000039B01330393E2E700230293029B032B59
:1003F00019DC019B029A203253F82230002B0ED0D8
:10040000019B029A1C3253F82210019B029A20325F
:1004100053F822300A4602990C480EF05BFD029B0D
:1004200001330293E2E7019B184605B05DF804FB37
:1004300055555505D855010828560108405601085C
:10044000545601086856010884560108A856010848
:1004500000B583B00190019800F010F8019800F009
:100460009FF8019800F0BCF803480EF033FD00BF80
:1004700003B05DF804FB00BFCC5601082DE9F0473E
:100480008AB0059043480EF025FD059B20331846A1
:1004900004F054FE059BD3E90A123F4BD3E9003424
:1004A000CD1A62EB0406CDE90856DDE908562B4665
:1004B0003446DA18029244EB04030393DDE9023474
:1004C0005B1946EB04044FF000014FF0000262019B
:1004D00042EAD36259015B1842EB04045A190092B4
:1004E00044EB06030193059BD3F898304FF47A72DE
:1004F00002FB03F34FF000041A462346DDE9000136
:1005000014F0DCFE03460C468DF81F30DDE908567A
:100510002B46344613EB030944EB040A4B4654467E
:100520005B1946EB04044FF000014FF0000262013A
:1005300042EAD36259015B1842EB04045F1944EBB1
:100540000608059BD3F898304FF47A7202FB03F348
:100550004FF000041A4623463846414614F0AEFEDA
:1005600003460C46DBB2C3F164038DF81E30059BD5
:10057000D3E90A34084AC2E900349DF81F309DF8D7
:100580001E20194605480EF0A5FC00BF0AB0BDE8C4
:10059000F08700BFD0560108280D00200057010841
:1005A00000B583B001900B480EF094FC019B1846F7
:1005B00003F0D8F8019B1B68194607480EF08AFC27
:1005C000019B5B68194605480EF084FC00BF03B030
:1005D0005DF804FB1C5701084C57010860570108DF
:1005E00000B585B0019038480EF074FC019BD3F83B
:1005F0009020019B93F895301946104604F0D2FDE7
:100600000346029300230393039A029B9A4257DA0C
:10061000019BD3F89010039A13465B001344DB0050
:100620000B441B68194629480EF054FC019BD3F873
:100630009010039A13465B001344DB000B445B6984
:10064000194623480EF046FC019BD3F89010039AFC
:1006500013465B001344DB000B445B6819461D48DE
:100660000EF038FC019BD3F89010039A13465B0000
:100670001344DB000B449B68194617480EF02AFC14
:10068000019BD3F89010039A13465B001344DB00E0
:100690000B44DB68194611480EF01CFC019BD3F893
:1006A0009010039A13465B001344DB000B441B6954
:1006B00019460B480EF00EFC039B01330393A3E78E
:1006C00000BF05B05DF804FB78570108A857010882
:1006D000B8570108C4570108D4570108E857010862
:1006E000FC57010800B5ABB06B4642F210711846DA
:1006F000FFF718FE01211348FFF7FBFD00232993A4
:100700001148FFF703FE0346002B0CBF0123002313
:10071000DBB219460C48FFF7ECFD4FF4FA7004F019
:1007200025FE299B002B02D0299B142B05D16B465B
:100730001846FFF78DFE00232993299B0133299347
:10074000DEE700BF4C0D0020300D002000B583B067
:100750000190104A019B1A600F4A019BC3F8B02018
:100760000E4A019BC3F8B420019BC833184604F01D
:10077000EBFE019800F05EF8019BB033184602F0E2
:1007800023FF019B184600F095FE019B184603B01D
:100790005DF804FBB0600108D06001083061010819
:1007A000A0F1B000D2E7A0F1B400CFE700B583B06C
:1007B00001900198FFF7CAFF019804F0BDFB019B6F
:1007C000184603B05DF804FBA0F1B000EEE7A0F11D
:1007D000B400EBE700B585B003900291039B012BB9
:1007E0001AD1029B4FF6FF72934215D11D210C487E
:1007F000FFF74AFD16210B48FFF746FD4FF416534D
:100800000093002303220221074800F09BFC074AC3
:100810000749054804F0DEFA00BF05B05DF804FBA7
:10082000300D00204C0D0020680D002088010020B4
:100830004D07000882B00190019B184602B0704736
:1008400008B54FF6FF710120FFF7C4FF08BD000097
:100850004FF0100300F00CB84FF0200300F008B880
:100860004FF0300300F004B84FF0400300F000B840
:10087000EFF308804FF0040172460A4201D0EFF313
:1008800009809C46244B196802680A60043142685A
:100890000A60043182680A600431C2680A60043167
:1008A000F0C147460F6004314F460F600431574690
:1008B0000F6004315F460F60043102690A6008313D
:1008C00042690A60043182690A600431C2690A60BF
:1008D0000431034620334FF40076324200D0043313
:1008E00075464FF01006354200D148330C46103C97
:1008F0002360EFF309820A600431EFF308820A6093
:10090000043172460A600431EFF314820A606046D3
:10091000014900F003F8FEE71058010800B587B060
:1009200003900291002305931A4803F0C9F8039B32
:10093000302B0BD0039B402B0ED0039B202B11D1CF
:10094000154803F0BDF8154B059311E0144803F06A
:10095000B7F8144B05930BE0134803F0B1F8134BB1
:10096000059305E0124803F0ABF8124B059300BF66
:10097000114803F0A5F800F027F8104803F0A0F89C
:100980000F4BDA6B0023009300230E49059803F008
:100990005DFA00BF14580108405801083E01FF806D
:1009A000505801083F01FF805C5801084001FF805A
:1009B000685801083D01FF807458010880580108FB
:1009C000041A0020A058010830B587B00023059311
:1009D0000CE0454A059B9B0013441B681A46059989
:1009E000424803F06DF8059B01330593059B0C2BE2
:1009F000EFDD3D4B586B3C4B9C6B3B4BDD6B3A4BFF
:100A00001B6C394A526C3849896C029101920093EF
:100A10002B4622460146364803F052F8354B1B68F8
:100A20001946354803F04CF8324BD86A314B9B6A73
:100A3000DCB2304B9B6A1B0ADDB22E4B9B6A1B0C4F
:100A40009BB22C4A126B2B49C96B02910192009305
:100A50002B4622460146294803F032F8254B9B6A73
:100A600003F08003002B05D0224B5B6B1946244812
:100A700003F026F81F4B9B6A03F40043002B05D0BC
:100A80001C4B9B6B19461F4803F01AF8164BDB6C86
:100A900003F00803002B10D01B4803F011F8124B91
:100AA0001B6D03F00103002B03D0184803F008F876
:100AB00009E0174803F004F805E0164803F000F8D1
:100AC000134802F0FDFF084BDB6C03F00403002B1E
:100AD00003D0114802F0F4FF02E0104802F0F0FFEA
:100AE00000BF07B030BD00BF041A0020B058010895
:100AF000C058010800ED00E0105901082059010814
:100B0000705901088059010890590108A05901083D
:100B1000B0590108C4590108D4590108E059010825
:100B200082B001900091009B184602B0704700000F
:100B300000B583B00190019B184600F063FE019858
:100B400000F063F8084A019B1A60019B28330021DA
:100B5000184600F066F8019B012283F83820019BBB
:100B6000184603B05DF804FB5861010800B583B076
:100B700001900B4A019B1A60019800F07AFD019BDD
:100B80002833184600F064F8019800F044F8019BFF
:100B9000184600F099FE019B184603B05DF804FB6F
:100BA0005861010800B583B001900198FFF7DEFF9E
:100BB000019804F0C1F9019B184603B05DF804FBED
:100BC00000B583B00190019B1846FFF7B1FF019873
:100BD00000F04FF8034A019B1A60019B184603B0CE
:100BE0005DF804FB6C61010800B583B00190019BC6
:100BF000DB68002B04D0019BDB689B680198984759
:100C0000019B184603B05DF804FB82B00190019B84
:100C1000184602B0704782B00190019B184602B09E
:100C2000704700B583B001900091009B002B05D167
:100C30001022002101980EF0E7F804E06B461946F7
:100C4000019800F023F8019B184603B05DF804FBFF
:100C500000B583B00190019BDB68002B04D0019BA1
:100C6000DB689B6801989847019B184603B05DF8C4
:100C700004FB82B00190019B184602B0704782B01D
:100C80000190019B184602B07047000000B583B088
:100C9000019000911022002101980EF0B5F8019BFF
:100CA00019460420FFF73CFF0246009B1B681360B7
:100CB000019B034ADA6000BF03B05DF804FB00BF8C
:100CC000EC59010800B583B00190019B1B6898475F
:100CD00000BF03B05DF804FB00B583B00190009144
:100CE000019B19460420FFF71BFF0246009B1B686F
:100CF000136000BF03B05DF804FB82B0019000BF39
:100D000002B0704700B583B00190074A019B1A609A
:100D10000198FFF7B4FF019B1846FFF727FF019BDF
:100D2000184603B05DF804FB6C61010800B583B0A0
:100D300001900198FFF7E6FF019804F0FDF8019B90
:100D4000184603B05DF804FB00B583B00190009134
:100D5000009BDB68002B05D0009BDB685B6800997B
:100D600001989847009BDA68019BDA60019B18465E
:100D700003B05DF804FB82B00190019BDB68002B9F
:100D800014BF01230023DBB2184602B0704700B540
:100D900083B00190019800F01DF803B05DF804FBEA
:100DA00000B583B001900091019A009B9A420CD04B
:100DB0000198FFF74DFF019B19461020FFF7B0FE89
:100DC000034600991846FFF7BFFF019B184603B082
:100DD0005DF804FB00B583B00190019BDB68002B3C
:100DE00005D140F23A220649064802F003FE019B73
:100DF000DB681B680198984700BF03B05DF804FBEF
:100E0000346001085860010808B5074B1B68002BC7
:100E100007D0054B1B684FF0FF31184606F05CFF0A
:100E200000E000BF08BD00BFA81A002008B5064BAF
:100E30001B68002B05D0044B1B68184606F076FF94
:100E400000E000BF08BD00BFA81A002000B583B0B5
:100E50000190019800F006F80346184603B05DF8CB
:100E600004FB000010B582B00190019B1B68002BB1
:100E700013D1FFF7C9FF019B1B68002B0BD1019B0E
:100E8000083319462420FFF74BFE0446204604F0A1
:100E9000C5FA019B1C60FFF7C9FF019B1A68019B03
:100EA00008339A4204D068220449054802F0A2FDA2
:100EB000019B1B68184602B010BD00BF60600108AE
:100EC0008860010800B583B001900091009B002B61
:100ED00005D11022002101980DF096FF04E06B4629
:100EE0001946019800F006F8019B184603B05DF81A
:100EF00004FB000000B583B0019000911022002196
:100F000001980DF081FF019B19460420FFF708FEB0
:100F10000246009B1B681360019B034ADA6000BF16
:100F200003B05DF804FB00BF9C60010800B583B00E
:100F300001900091019B1B680098984700BF03B087
:100F40005DF804FB00B583B001900091019B194648
:100F50000420FFF7E5FD0246009B1B68136000BFFD
:100F600003B05DF804FB82B0019000BF02B070478F
:100F700000B583B00190019B143300211846FFF7A0
:100F8000A1FF019B184603B05DF804FB00B583B0D8
:100F90000190019B14331846FFF726FE019B18466B
:100FA00003B05DF804FB30B583B00190019B0124D0
:100FB0001D46002C05DB284600F01EF82C35013CB0
:100FC000F7E7019B00229A65019B0022DA65019BED
:100FD000002283F86020019B184603B030BD00B5A5
:100FE00083B00190019B04331846FFF7CFFF019BAC
:100FF000184603B05DF804FB00B583B00190019B77
:1010000000221A60019B04332822002118460DF0AB
:10101000FBFE019B04331846FFF7AAFF019B18460D
:1010200003B05DF804FB000000B583B001900091AF
:10103000019B012B0CD1009B4FF6FF72934207D10D
:101040000548FFF7B0FF054A0549034803F0C2FE13
:1010500000BF03B05DF804FB540E0020880100209F
:101060006510000810B582B00190019B002B0AD0DA
:10107000019B03F15804019B9C4204D02C3C204668
:10108000FFF7ADFFF7E7019B184602B010BD08B5AA
:101090004FF6FF710120FFF7C7FF08BD00B585B00F
:1010A000039002910192039B1B6810331B68019A05
:1010B0000299039898470346184605B05DF804FB6B
:1010C00000B583B00190019B1B6818331B68019821
:1010D00098470346184603B05DF804FB00B583B09B
:1010E0000190019B1B6828331B68019898470346B1
:1010F000184603B05DF804FB82B001900B468DF8F2
:1011000003309DF80330002B01D0002301E06FF085
:101110001803184602B0704782B0019001231846A8
:1011200002B0704782B001900B46ADF80230112337
:10113000184602B0704782B00190009100BF02B023
:101140007047000000B585B0039001930B46ADF8E1
:101150000A301346ADF808300398BDF90820BDF9F0
:101160000A10069B00F06CF8039BB03301991846F7
:1011700002F0EAF9039800F05DF80A4A039B1A604E
:10118000094A039BC3F8B020084A039BC3F8B42064
:10119000039BC833184604F041F9039B184605B079
:1011A0005DF804FBB0600108D060010830610108FF
:1011B00000B583B00190019B184600F055F9034635
:1011C000184603B05DF804FBA0F1B000FFF7F0BFD4
:1011D00000B583B001900091019B0099184600F082
:1011E00050F90346184603B05DF804FBA0F1B000C7
:1011F000FFF7EEBF00B583B00190019BC8331846DE
:1012000004F058F900BF03B05DF804FBA0F1B00092
:10121000FFF7F0BF00B583B00190019BC8331846BB
:1012200004F070F900BF03B05DF804FBA0F1B0005A
:10123000FFF7F0BF82B00190019B184602B07047E3
:1012400030B58BB0039001930B46ADF80A301346CE
:10125000ADF80830039800F083F9374A039B1A6011
:10126000039B04330399184600F086F9039B002280
:101270001A77039B00225A77039B203300211846DC
:10128000FFF720FE039B303300211846FFF71AFEBC
:10129000039B40334C22002118460DF0B5FD039B03
:1012A0008C3301241D46002C06DB00212846FFF765
:1012B000B8FC1035013CF6E7039B019AC3F8AC205B
:1012C00000230993099B012B17D8099B1B01883325
:1012D000039A13441C1D05AB00211846FFF7A1FC1F
:1012E00005AB19462046FFF75BFD05AB1846FFF737
:1012F000AFFC099B01330993E4E7039B4033BDF93D
:101300000820BDF90A1018460BF064FD039B03F199
:101310004002039BD3F8AC30194610460BF068FE30
:10132000039B4033039A054918460AF01BFD039BB3
:1013300018460BB030BD00BF4061010823140008FF
:1013400010B588B00390029113468DF80730039BC7
:101350001B681B680398984702F01AFC0298FFF775
:101360000AFD0346002B25D09DF807301B0188336A
:10137000039A134404331846FFF7FDFC034683F039
:101380000103DBB2002B01D003F04AFE9DF80730C9
:101390001B018833039A1344043302991846FFF75C
:1013A000FFFC039B40339DF80710012218460AF00A
:1013B000EFFC2BE09DF807301B018833039A1344A0
:1013C00004331846FFF7D7FC0346002B01D003F087
:1013D0004DFE9DF807301B018833039A13441C1DF2
:1013E00004AB00211846FFF71CFC04AB194620464D
:1013F000FFF7D6FC04AB1846FFF72AFC039B4033EB
:101400009DF80710002218460AF0C2FC02F0DAFB31
:10141000039B1B6804331B680398984700BF08B000
:1014200010BD00B585B001900B468DF80330019BCF
:1014300003939DF803301B018833039A134404334C
:101440001846FFF798FC0346002B09D09DF803309F
:101450001B018833039A134404331846FFF797FCA3
:1014600000BF05B05DF804FB00B583B00190019B9F
:10147000403318460AF038FD0346184603B05DF8BD
:1014800004FB00B583B001900091019B40330099AB
:1014900018460AF055FD009B184603B05DF804FBA2
:1014A00082B0019000BF02B0704782B0019000BFCF
:1014B00002B0704710B588B00190214A019B1A60B4
:1014C00000230793079B012B13DC03AB0021184675
:1014D000FFF7A7FB079BDAB203AB19460198FFF7AA
:1014E0002FFF03AB1846FFF7B3FB079B01330793AE
:1014F000E8E7019B8C33002B0CD0019B8C3303F16C
:101500002004019B8C339C4204D0103C2046FFF702
:101510009FFBF6E7019B30331846FFF765FB019B05
:1015200020331846FFF760FB019B0433184600F098
:1015300038F8019800F01AF8019B184608B010BD61
:101540004061010800B583B001900198FFF7B2FF38
:10155000019803F0F1FC019B184603B05DF804FB11
:1015600082B00190019B184602B0704782B0019092
:10157000019B184602B0704700B587B003900291F6
:1015800000230493002305930023009304AB0CCBAA
:101590000299039800F016F8039B184607B05DF80F
:1015A00004FB00B583B00190019B5B69184601F014
:1015B0003FFD019B00225A61019B184603B05DF874
:1015C00004FB000084B003900291694681E80C009E
:1015D000039B029A5A60039B049A9A60039B0C3304
:1015E0006A4692E8030083E80300039B034A1A60FB
:1015F000039B00225A6100BF04B070470116000827
:1016000000B589B00190019B0793079B5B68069327
:10161000079B9B680593079A03AB0C3292E8030083
:1016200083E80300069B002B1FD0039B002B04D1F3
:10163000049B03F00103002B17D0049B5B101A4698
:10164000069B1A44049B03F00103002B01D1039B6A
:1016500008E0049B5B101946069B0B441B6803992A
:101660000B441B6805991046984700BF09B05DF808
:1016700004FB10B586B0019002F08AFA019B18466F
:1016800000F04AF9019B28331846FFF774FB034624
:10169000002B06D0019B93F83830002B01D001239A
:1016A00000E00023002B01D003F0E0FC019B03F1DC
:1016B000280402AB00211846FFF7B3FA02AB194623
:1016C0002046FFF76DFB02AB1846FFF7C1FA02F0A8
:1016D00079FA00BF06B010BDF0B585B00390CDE932
:1016E000002302F055FA039B184600F015F9039AFF
:1016F000DDE90034C2E90834039B0293039BD3E97C
:101700000845039B9B69184601F0FAFB02460B460D
:10171000A61845EB030732463B46029800F0E8F86E
:1017200002F050FA00BF05B0F0BD70B582B0019074
:101730000198019BD3E90212019BD3E90834CD182B
:1017400042EB04062A46334600F0D2F8019B2833C8
:101750001846FFF710FB0346002B04D0019B2833EB
:101760001846FFF714FB00BF02B070BD00B585B08E
:1017700003900291CDE9002302F00AFA039B28337B
:101780001846FFF7F8FA034683F00103DBB2002B9B
:1017900006D0039B93F83830002B01D0012300E0E2
:1017A0000023002B01D003F03BFC039B283302995C
:1017B0001846FFF7F5FADDE900230398FFF78CFFE1
:1017C00002F000FA00BF05B05DF804FB00B587B079
:1017D0000190019B03F1280202AB11461846FFF766
:1017E000B3FA019B1846FFF744FF02AB1846FFF718
:1017F000F1FA02AB1846FFF72BFA00BF07B05DF80D
:1018000004FB000010B582B00190019800F093F83D
:101810000F4A019B1A60019A4FF000034FF0000439
:10182000C2E90234019B00221A61019B00225A6125
:1018300001F080FB0246019B9A61019B9B6905496F
:10184000184601F079FA019B184602B010BD00BF9E
:1018500080610108A918000810B582B001900091BC
:10186000019800F068F80E4A019B1A60019A4FF047
:1018700000034FF00004C2E90234019B00221A6108
:10188000019B00225A61019B009A9A61019B9B690E
:101890000449184601F050FA019B184602B010BDE9
:1018A00080610108A918000800B585B00190019B6E
:1018B0000393039B1B6808331B680398984700BF7A
:1018C00005B05DF804FB000000B583B00190074A45
:1018D000019B1A60019800F01FF8019800F031F8A0
:1018E000019B184603B05DF804FB00BF806101084E
:1018F00000B587B00590CDE90223059B9869059B4B
:1019000003F10801059B0093DDE9022301F07AFA57
:1019100000BF07B05DF804FB00B583B00190019BE8
:101920009A69019B08331946104601F0AEFA00BFD0
:1019300003B05DF804FB82B00190019B184602B031
:10194000704782B00190019B184602B070470000BA
:1019500000B583B00190054A019B1A60019800F020
:1019600045F8019B184603B05DF804FBE0630108ED
:1019700000B583B001900198FFF7EAFF019803F0EA
:10198000DBFA019B184603B05DF804FB00B583B099
:101990000190019B1B6810331B68012200210198F4
:1019A00098470346184603B05DF804FB00B583B0C2
:1019B0000190019B1B6810331B68002200210198D5
:1019C000984700BF03B05DF804FB000000B583B08A
:1019D0000190019800F010F8034A019B1A60019BE6
:1019E000184603B05DF804FBE063010882B0019083
:1019F000019B184602B0704782B00190019B1846C7
:101A000002B0704700B585B0039002910192009337
:101A1000039B08331846FFF7D3F8029B1A68039B11
:101A20009A64009B5A1C039BDA64069B5A1C039B16
:101A30001A65039B002283F8542002F0A9F8039B47
:101A4000019A1A60029B5A68039B5A60039800F03F
:101A500005F902F0B7F8039B184605B05DF804FBE2
:101A600000B583B00190009102F092F8019B93F8C9
:101A70005730002B09D1019B93F85630002B04D12D
:101A8000019B93F85430002B18D0019B0833184663
:101A9000FFF7EFFD019B002283F85520019B0022F8
:101AA00083F85620019B002283F85720009B002BCF
:101AB00008D0019A009B1046984703E0019B9B6C5D
:101AC000DB68984702F07EF800BF03B05DF804FBC6
:101AD00000B583B0019002F05BF8019800F0BEF809
:101AE000019B9B6C1B68984702F06CF800BF03B029
:101AF0005DF804FB00B583B0019002F049F801984D
:101B000000F0ACF8019B9B6C9B69984702F05AF877
:101B100000BF03B05DF804FB00B585B0019002F092
:101B200037F8019B9B6C5B6898470390019B93F887
:101B3000543083F00103DBB2002B08D003990198E5
:101B400000F028F90346002B01D0012300E0002318
:101B5000002B03D0019B9B6C5B69984702F032F825
:101B6000039B184605B05DF804FB00B583B00190F7
:101B7000009102F00DF8019B9B6C5B689847024650
:101B8000019B1A66019B009ADA65019B012283F88A
:101B90005620019B93F8543083F00103DBB2002BF5
:101BA00006D0019B1B6E1946019800F04BF90CE022
:101BB000019B9B6C1B6900989847019B1A6E019BC7
:101BC0005A66019B002283F8582001F0FBFF00BFFA
:101BD00003B05DF804FB00B583B0019001F0D8FFBD
:101BE000019B9B6C9B68984701F0ECFF00BF03B022
:101BF0005DF804FB00B583B0019001F0C9FF019BC3
:101C00009B6CDB68984701F0DDFF00BF03B05DF817
:101C100004FB00B583B0019001F0BAFF019B0122E3
:101C200083F85720019B9B6C5B69984701F0CAFFC2
:101C300000BF03B05DF804FB00B585B0019001F072
:101C4000A7FF019B9B6CDB699847039001F0BAFFEB
:101C5000039B184605B05DF804FB000070B584B026
:101C6000019001F08FFF034683F00103DBB2002BEC
:101C700004D0C2222B492C4801F0BCFE019B083342
:101C80001846FFF7F6FC019B002283F85520019BC4
:101C9000002283F85620019B002283F85720019BE5
:101CA000012283F85820019B0022DA65019B002263
:101CB0001A66019B00225A66019B9B6CDB69984760
:101CC0000390039B5B681F2B04D9019B4FF0FF32ED
:101CD0009A6617E0039B59684FF001024FF000032A
:101CE000A1F12006C1F1200003FA01F502FA06F67F
:101CF000354322FA00F0054302FA01F423465A1E46
:101D0000019B9A66039B1B6803F5742303F23F2330
:101D1000039A1268B3FBF2F2019BDA6600BF04B0CB
:101D200070BD00BF8C610108B861010800B585B0C5
:101D3000019001F02DFF019B002283F85520019BAB
:101D40009B6C5B6898470390019B1A6E019BDB6D4F
:101D50009A420AD0019B186E019BDB6D1A460399CB
:101D600000F054FF0346002B01D0012300E00023C4
:101D7000002B04D0019B9B6C5B69984703E003999F
:101D8000019800F05FF801F01DFF00BF05B05DF89D
:101D900004FB000000B583B00190009101F0F2FE59
:101DA000034683F00103DBB2002B04D0F022134979
:101DB000134801F01FFE019B93F8563083F0010396
:101DC000DBB2002B01D0002314E0019B1A6E019BB3
:101DD000DB6D9A420AD0019B186E019BDB6D1A469F
:101DE000009900F013FF0346002B01D0012300E00F
:101DF000002300BF184603B05DF804FB8C610108A6
:101E0000B861010800B583B00190009101F0BAFEFD
:101E1000034683F00103DBB2002B04D0FC22074908
:101E2000074801F0E7FD019BDB6E009A02FB03F31C
:101E30000433184603B05DF804FB00BF8C61010851
:101E4000B861010830B595B00190009101F09AFE9B
:101E5000034683F00103DBB2002B05D04FF48272FE
:101E60006A496B4801F0C6FD019B93F8583083F036
:101E70000103DBB2002B0ED0019B5B6E009AD21ADD
:101E8000019B9B6E1A40019BDB6C9A4203D3019B22
:101E9000012283F85820019BDA6D009BD21A019B26
:101EA0009B6E13400393019B1A6D039B9A428CBF58
:101EB000012300238DF84F30019B93F8583083F0B5
:101EC0000103DBB2002B36D0019B93F8553083F031
:101ED0000103DBB2002B00F09680019B1A6D039B7F
:101EE0009A4202D903AB1B6801E0019B1B6D129360
:101EF000019B03F10805474B08930023099304A8AD
:101F000008AB0CCB019900F087F812990198FFF704
:101F100079FF03464FF0000404A91A4623462846D9
:101F2000FFF724FC04AB1846FEF792FE019B01224A
:101F300083F8552067E09DF84F3083F00103DBB252
:101F4000002B2ED0019B9B6C1B69019AD26D104611
:101F50009847019B9B6C5B6898470090019B009A97
:101F60005A66019B002283F85820019BDA6D009B82
:101F7000D21A019B9B6E13401193039B119A9A42B4
:101F800004D9019B9B6C5B6998473DE0119B0393CF
:101F9000019B1A6D039B9A428CBF012300238DF88D
:101FA0004F309DF84F30002B2ED0019B1A6D039BB4
:101FB0009A4202D903AB1B6801E0019B1B6D109391
:101FC000019B03F10805134B0E9300230F930AA8FE
:101FD0000EAB0CCB019900F01FF810990198FFF798
:101FE00011FF03464FF000040AA91A46234628466B
:101FF000FFF7BCFB0AAB1846FEF72AFE019B012245
:1020000083F8552000E000BF15B030BD8C61010899
:10201000B86101082D1D000800B585B0039002913C
:10202000694681E80C006B460CCB0299039800F0DE
:1020300004F8039805B05DF804FB00B589B003907F
:102040000291694681E80C0005A86B460CCB029909
:1020500000F00AF805AB1946039800F019F8039B45
:10206000184609B05DF804FB84B0039002916946FC
:1020700081E80C00039B1A466B4693E8030082E854
:102080000300039B029A9A60039B184604B07047B2
:1020900000B583B0019000911022002101980CF04E
:1020A000B3FE019B19460C20FEF73AFD0346009A49
:1020B00007CA83E80700019B024ADA6000BF03B049
:1020C0005DF804FBD861010800B583B00190019868
:1020D00000F01BF800BF03B05DF804FB00B583B04F
:1020E00001900091019B19460C20FEF719FD034653
:1020F000009A07CA83E8070000BF03B05DF804FB3D
:1021000082B0019000BF02B0704700B583B001906B
:10211000019B9B68019A526852109918019B5B6859
:1021200003F00103002B0BD0019B9B68019A5268BE
:10213000521013441B68019A126813441B6801E093
:10214000019B1B680846984700BF03B05DF804FB7D
:1021500082B0EFF310830193019B03F00103002B86
:102160000CBF01230023DBB2184602B07047000009
:1021700000B583B0FFF7ECFF03468DF8073072B669
:10218000084B1B78DBB2002B07D1074A9DF80730BC
:102190001370044B01221A7000E000BF03B05DF819
:1021A00004FB00BFB90E0020B80E002008B5FFF7F1
:1021B000CFFF0346002B04D036220749074801F021
:1021C00019FC074B00221A70064B1B78DBB2002B60
:1021D00000D062B600BF08BDE461010810620108CA
:1021E000B90E0020B80E0020024B1B78DBB2184657
:1021F000704700BFB90E002082B001900091009B93
:10220000002B05D0019B9B68019A12681A6004E0BC
:10221000019BDB68019A12681A6000BF02B0704728
:1022200000B585B0039001930B46ADF80A30134614
:102230008DF80930BDF90A30194603980AF0B2F852
:10224000BDF90A30B3F1FF3F0DD001990398FFF7B4
:10225000D3FF012103980AF0FEF89DF809301946D2
:1022600003980AF0E5F800BF05B05DF804FB00B57F
:1022700083B001900B46ADF80230BDF90230002268
:102280001946019800F004F800BF03B05DF804FBA4
:1022900000B585B003900B460192ADF80A30BDF948
:1022A0000A10019B00220398FFF7BAFF00BF05B098
:1022B0005DF804FB08B5034800F088F803461846AB
:1022C00008BD00BF4C62010808B5034B1B681846E7
:1022D00000F05EF800BF08BD8C01002008B5034B7C
:1022E0001B681846FFF7F4FB00BF08BD000F002075
:1022F00008B5044B1B681846FFF70EFC034618464A
:1023000008BD00BF000F002000B583B00190054B51
:102310001B6801991846FFF728FC00BF03B05DF861
:1023200004FB00BF000F002008B5034B1B681846D4
:10233000FFF751FC00BF08BD000F002008B5034B9C
:102340001B681846FFF756FC00BF08BD000F0020B1
:1023500008B5034B1B681846FFF75BFC00BF08BDC0
:10236000000F002008B5044B1B681846FFF764FCFB
:102370000346184608BD00BF000F002008B5034BF8
:102380001B681846FFF7B6FB00BF08BD000F002012
:1023900000B583B0019001F0FBFB0A4B1B7883F082
:1023A0000103DBB2002B01D0FFF784FF064B1B6853
:1023B00001991846FFF754FB01F004FC00BF03B07D
:1023C0005DF804FB780F0020000F002010B584B0EA
:1023D000039001F0DDFB104B1B7883F00103DBB2AF
:1023E000002B11D00D497020FEF79AFB0446042300
:1023F000009304230A4A03992046FFF703FB094B85
:102400001C60054B01221A7001F0DCFB054B1B68B8
:10241000184604B010BD00BF780F0020080F002040
:1024200054620108000F002000B585B003460291F8
:10243000ADF80E30BDF90E30B3F1FF3F28D018E0F3
:10244000029BB3F90030BDF90E209A420ED1029BD7
:102450009A68BDF90E30114618460AF0A5FBBDF981
:102460000E30002118460AF02DFC12E0029B0C33BE
:102470000293029BB3F90030B3F1FF3FE0D1BDF905
:102480000E200023009300230349044801F0DEFCE2
:1024900000BF05B05DF804FB7462010830010180E3
:1024A00000B585B003900291039A029B9A4201D134
:1024B000039B13E0039BB3F1FF3F01D1029B0DE0AF
:1024C000029BB3F1FF3F01D1039B07E00023009380
:1024D0000023039A0349044801F0B8FC184605B0EC
:1024E0005DF804FB886201083001018082B0034678
:1024F0000091ADF806300CE0009BB3F90030BDF957
:1025000006209A4202D1009B5B680AE0009B0C33D4
:102510000093009BB3F90030B3F1FF3FECD14FF0D3
:10252000FF33184602B0704700B587B003460291EA
:10253000ADF80E304FF0FF330593BDF90E30B3F117
:10254000FF3F02D14FF0FF3313E0BDF90E30029987
:102550001846FFF7CBFF0590059BB3F1FF3F07D16E
:10256000002300930023059A0449054801F06EFCFE
:10257000059B184607B05DF804FB00BF9C6201088C
:10258000300101802DE9F0478EB00590059B5B6816
:1025900093F83830002B40F00181059B5B6893F87D
:1025A0003A30002B40F0FC80059B1B681B68984765
:1025B000059B1B68DB6998470C900C9B1B680B9371
:1025C0000C9B1B68002B04D12D227749774801F022
:1025D00011FA00238DF837301F238DF8363011E0C3
:1025E0009DF83630012202FA03F30B9A9A4204D185
:1025F0009DF836308DF8373008E09DF83630013BD5
:102600008DF836309DF83630002BE9D10C9B5B6895
:102610000A930C9B5B68202B03D80C9B5B68032BF5
:1026200004D83B226049614801F0E4F90A9B043B6D
:10263000072202FA03F30993099B1D464FF0000697
:102640002B4634464FF000014FF00002620142EA8F
:10265000D36259010B4614465B1B64EB06044FF032
:1026600000014FF00002620242EAD35259020B46C7
:1026700014465B1946EB04044FF000014FF00002D2
:10268000A20142EA93629901C91A62EB04024B1952
:10269000009342EB060301930B9B4FF00004DDE92E
:1026A0000001024612EB03090A4642EB040A19F143
:1026B000FF3302934AF1FF3303930B9B4FF0000467
:1026C0001A462346DDE9020112F0F8FD03460C46E6
:1026D000CDE90634059B5B6800221A60059B5B68A8
:1026E00000225A60059B1B685B68059A54689847EE
:1026F00003462362059B5A684FF000034FF0000425
:10270000C2E90A34059B5B680B9A9A60059B5B687B
:102710009DF8372083F83B204FF001034FF0000471
:102720000A9AA2F12000C2F1200104FA02F803FA89
:1027300000F048EA000823FA01F148EA010803FA28
:1027400002F73A46059B5B68013ADA60059B5B68D5
:10275000099A1A61059B5A68DDE90634C2E9063414
:10276000059B5A684FF000034FF00004C2E90C3497
:10277000059B5B68002283F83920059B5B6800227B
:1027800083F83A20059B5B68012283F8382005987E
:1027900000F018F8059800F05BFA02E000BF00E0D6
:1027A00000BF0EB0BDE8F087DC62010800630108DD
:1027B00082B001900091019B5B68009A1A6000BF93
:1027C00002B070472DE9F047A2B01790179B5B68E5
:1027D0001F931F9B93F83A30002B40F06A81179BA0
:1027E0001B685B6898471E90179B5B681A6A1E9B64
:1027F000934200F060811F9B1A6A1E9B9A1A1F9BCE
:10280000DB6813404FF00004CDE91C341F9A1E9B77
:1028100013621F9B9A68AA4B9A4204D1DDE91C34CB
:10282000CDE9203435E11F9B93F83B30002B00F0BD
:10283000A180DDE91C562B4634464FF000014FF0D5
:102840000002620142EAD36259010B4614465B1B47
:1028500064EB06044FF000014FF00002620242EA0E
:10286000D35259020B4614465B1946EB04044FF051
:1028700000014FF00002A20142EA93629901C91AD5
:1028800062EB04024B190E9342EB06030F93DDE952
:102890000E34CDE91A341F9B93F83B301846DDE91E
:1028A0001A34C0F12002A0F1200123FA00F904FA41
:1028B00002F249EA020924FA01F149EA010924FA7B
:1028C00000FACDE9209A1F9BD3E90A561F9B93F883
:1028D0003B301846DDE92034A0F12002C0F1200190
:1028E00004FA00F803FA02F248EA020823FA01F1B6
:1028F00048EA010803FA00F7DDE91A34DA1B00920E
:1029000064EB08030193DDE900120B46EB18029318
:10291000134646EB030303931F9BDDE90212C3E951
:102920000A121F9BD3E90A121F9B9B684FF00004F9
:10293000A24208BF9942C0F0AC80DDE920345A1CA5
:10294000109244F100031193DDE91034CDE92034F5
:102950001F9BD3E90A121F9B9B684FF00004C81A03
:10296000049062EB040305931F9BDDE90412C3E9A5
:102970000A128EE0DDE91C562B4634464FF000016A
:102980004FF00002620142EAD36259010B4614463D
:102990005B1B64EB06044FF000014FF00002620283
:1029A00042EAD35259020B4614465B1946EB040423
:1029B0004FF000014FF00002A20142EA9362990138
:1029C000C91A62EB04024B19129342EB06031393EC
:1029D000DDE91234CDE918341F9B9B684FF00004E9
:1029E0001A462346DDE9180112F068FC03460C463E
:1029F000CDE920341F9BD3E90A561F9B9B684FF0FB
:102A00000004209A04FB02F1219A03FB02F28818C9
:102A1000209AA2FB031283181A46DDE91834581ACB
:102A2000069064EB02030793DDE906120B46EB18F0
:102A30000893134646EB030309931F9BDDE9081235
:102A4000C3E90A121F9BD3E90A121F9B9B684FF030
:102A50000004A24208BF99421BD3DDE920345A1C6E
:102A6000149244F100031593DDE91434CDE92034C8
:102A70001F9BD3E90A121F9B9B684FF00004C81AE2
:102A80000A9062EB04030B931F9BDDE90A12C3E972
:102A90000A121F9BD3E90C12DDE92034C8180C90F0
:102AA00042EB04030D931F9BDDE90C12C3E90C12EA
:102AB00002E000BF00E000BF22B0BDE8F08700BF29
:102AC00040420F002DE9F04F89B00390CDE900237B
:102AD000039B5B680693069BD3E90C23DDE90001A9
:102AE000861A61EB0307CDE90467039B5B681B69EA
:102AF0000793039B5B68D3E90601DDE90423994250
:102B000008BF904272D3069B9B683E4A93420CD109
:102B1000049B0793039B5B681B69079A9A4265D9DC
:102B2000039B5B681B69079360E0069B93F83B304F
:102B3000002B30D0039B5B6893F83B301946DDE9EE
:102B40000423A1F12006C1F1200003FA01F502FAE5
:102B500006F6354322FA00F0054302FA01F42A4A48
:102B60004FF0000314EB020A45EB030B254A4FF02C
:102B700000035046594612F0A1FB03460C4607934A
:102B8000039B5B681B69079A9A422FD9039B5B687A
:102B90001B6907932AE0069B9B684FF00004049A88
:102BA00004FB02F1059A03FB02F20A440499A1FB1B
:102BB00003342244144614494FF0000213EB010879
:102BC00044EB02090F4A4FF000034046494612F019
:102BD00075FB03460C460793039B5B681B69079ACA
:102BE0009A4203D9039B5B681B690793069B1A6A89
:102BF000079B1A44069BDB681340184609B0BDE8E2
:102C0000F08F00BF40420F003F420F0084B003909E
:102C100002910192019A039B9A420BD9029A019B5D
:102C20009A4203D2029A039B9A4201D201230CE0FA
:102C300000230AE0029A039B9A4205D2029A019B62
:102C40009A4201D3012300E00023184604B07047E4
:102C500010B58CB00190019B5B680B930B9B93F8B4
:102C60003A30002B60D1019B5B6893F83930002B20
:102C70005AD10198FFF7A6FD019B5B685B68002BAA
:102C800043D0019B5B68D3E90C34CDE90834019B48
:102C90005B685B68D3E90034CDE90634DDE90634CE
:102CA000DDE90812A24208BF994204D3019B1B68C8
:102CB0005B69984739E0DDE906230198FFF702FFD9
:102CC00005900B9B1B6A059A9A4205D14FF48472BA
:102CD0001749184800F08EFE019B1B681B69059878
:102CE0009847019B1B685B68984704900B9B1B6A85
:102CF000059A04991846FFF789FF0346002B14D064
:102D0000019B1B685B6998470FE00B9B1A6A0B9B42
:102D10001B691A440B9BDB6813400393019B1B68E0
:102D20001B690398984700E000BF0CB010BD00BFBE
:102D3000DC6201080463010800B583B001900091D2
:102D40000198FFF71FFC00F023FF00990198FFF79F
:102D50002FFD00F037FF00BF03B05DF804FB10B596
:102D600084B0019000F014FF019B1B68DB6898475A
:102D7000019B5B6893F83A30002B02D000F022FFF1
:102D80003EE0019B5B68012283F83920019B5B6870
:102D90005B68002B27D00198FFF714FD019B5B684F
:102DA0005B68D3E90034019A5268D2E90C12A2425E
:102DB00008BF994219D3019B5B685B680393019B31
:102DC0005B685A68019B5B68D2685A60019B5B68CC
:102DD0001B68002BDAD0019B5B681B68039A926822
:102DE00010469847D2E700BF00E000BF019B5B6838
:102DF000002283F839200198FFF72AFF00F0E2FE55
:102E000004B010BD10B586B003900291CDE9002347
:102E100000F0BEFE0398FFF7D5FC029ADDE900340E
:102E2000C2E90034029B089A9A6000230593039B31
:102E30005B685B6804930DE0049BD3E90034DDE933
:102E40000012A24208BF994208D3049B0593049B39
:102E5000DB680493049B002BEED100E000BF029BD3
:102E6000049ADA60059B002B07D1039B5B68029AEA
:102E70005A600398FFF7ECFE02E0059B029ADA60C5
:102E800000F0A0FE00BF06B010BD00B585B00190F7
:102E9000009100F07DFE019B5B685B68009A9A429E
:102EA00008D1019B5B68009AD2685A600198FFF7CD
:102EB000CFFE14E0019B5B685B6803930CE0039B0F
:102EC000DB68009A9A4204D1009BDA68039BDA60BF
:102ED00005E0039BDB680393039B002BEFD100F01D
:102EE00071FE00BF05B05DF804FB10B582B0019023
:102EF000019800F005F803460C46184602B010BDD4
:102F000010B584B001900198FFF73CFB00F040FE43
:102F10000198FFF757FC019B5B68D3E90C34CDE9BE
:102F2000023400F04FFEDDE902341846214604B0B9
:102F300010BD0000014B1846704700BF48630108F0
:102F400008B5054B1B68002B03D0034B1B680348D7
:102F5000984700BF08BD00BF9001002048630108EA
:102F600082B00190044A019B9360034B00221A61D6
:102F700000BF02B0704700BF90ED00E082B001904A
:102F80000091044A019BD360024A009B136100BF79
:102F900002B0704790ED00E000B583B0BFF35F8FE3
:102FA0001B4B1B681B0ADBB20093009B032B04D84E
:102FB0003A221849184800F01DFD154B00225A60AE
:102FC0000023019305E00198FFF7CAFF019B01333D
:102FD0000193019A009B9A42F5D310491020FFF704
:102FE000CDFF0F491320FFF7C9FF0E491120FFF74E
:102FF000C5FF0D490D48FFF7C1FF054B07225A6079
:10300000BFF34F8FBFF36F8F00BF03B05DF804FBBA
:1030100090ED00E0506301087463010839F0020686
:10302000390702133FF50B13390002131200008019
:1030300000B583B00190064B1B68002B03D0044BF6
:103040001B680198984700BF03B05DF804FB00BF00
:10305000C00F002000B585B00390029113468DF893
:103060000730039800F00BF9164A039B1A60039B84
:1030700000225A60039B029A9A60039B9DF80720E6
:103080001A731148FDF7E2FE0346184602F012FAE1
:10309000029B002B07D00D4B1A68039B5A600B4A0A
:1030A000039B136002E0039B00225A600648FDF771
:1030B000CDFE0346184602F025FA039B184605B0DC
:1030C0005DF804FBD0630108C80F0020C40F002086
:1030D00000B585B00190274A019B1A602648FDF78C
:1030E000B5FE0346184602F0E5F9019B9B68002BEC
:1030F00019D0224B1B68019A9A4204D1019B5B684C
:103100001E4A13600FE01D4B1B680393039B5B6813
:10311000019A9A4203D0039B5B680393F6E7019BF5
:103120005A68039B5A60164B1B68019A9A4202D157
:10313000134B00221A601048FDF788FE034618461C
:1031400002F0E0F9019800F093F80346002B0CBF61
:1031500001230023DBB2002B04D0019B043B184663
:1031600000F0BCFF019800F090F8019B184605B0F4
:103170005DF804FBD0630108C80F0020C40F0020D5
:10318000F80F002000B583B001900198FFF7A0FF71
:10319000019801F0D1FE019B184603B05DF804FBD5
:1031A00000B585B0019000912D48FDF74FFE034614
:1031B000184602F07FF92B4B1B680393039B002BEF
:1031C00028D0039B9B68002B14D0039B9B68184658
:1031D0000CF0D6F90246009B93420BD1039B9B68EF
:1031E000009A019918460BF0DBFC0346002B01D135
:1031F000012300E00023002B08D01948FDF726FE2C
:103200000346184602F07EF9039B25E0039B5B68AA
:103210000393D3E7009B072B09D1009A0199124829
:103220000BF0BEFC0346002B01D1012300E000237C
:10323000002B09D00A48FDF709FE0346184602F0A4
:1032400061F90A4B1B6807E00548FDF7FFFD0346DF
:10325000184602F057F90023184605B05DF804FB44
:10326000C80F0020C40F002084630108F80F00205D
:1032700082B00190019B1B7B184602B0704782B060
:103280000190019B184602B0704782B00190019BEB
:10329000184602B0704782B001900023184602B071
:1032A000704782B001900023184602B0704700B505
:1032B00085B00190019B1B6810331B68012200211F
:1032C000019898470390039B002B01DA039B11E0C0
:1032D000019B1B6810331B6802220021019898474C
:1032E0000290019B1B6810331B6800220399019810
:1032F0009847029B184605B05DF804FB00B587B0FF
:1033000001900091019B00221A60019B00225A60EB
:10331000204900980CF0DCF90246009B134400930E
:10332000009B0493019B049A1A6000230593019B60
:103330001B681B788DF80F309DF80F302F2B05D1AF
:10334000019B1B685A1C019B1A600DE09DF80F3011
:10335000002B08D0059B01330593019B1B685A1C69
:10336000019B1A60E3E700BF059B002B04D12A22D2
:1033700009490A4800F03EFB059B19460498FFF7EF
:103380000FFF0246019B5A60019B184607B05DF88B
:1033900004FB00BF286401082C6401085064010884
:1033A00082B00190019B1B68184602B0704700B5BF
:1033B00083B00190019B5B68002B01D100230AE0E0
:1033C000019B5B681846FFF753FF0346012B0CBFB8
:1033D00001230023DBB2184603B05DF804FB00B5FF
:1033E00083B001900198FFF7E2FF0346002B09D05C
:1033F000019B5B68002B03D0019B5B68043B02E0F0
:10340000002300E00023184603B05DF804FB00B57C
:1034100083B00190019B5B68002B01D100230AE07F
:10342000019B5B681846FFF723FF0346002B0CBF88
:1034300001230023DBB2184603B05DF804FB00B59E
:1034400083B001900198FFF7E2FF0346002B09D0FB
:10345000019B5B68002B03D0019B5B68043B02E08F
:10346000002300E00023184603B05DF804FB82B09F
:103470000190019B5B68002B14BF01230023DBB28A
:10348000184602B07047000000B583B0019000916B
:10349000019B1846FEF79AFA019B0433002200991B
:1034A0001846FFF7D7FD019800F044F9054A019B43
:1034B0001A60054A019B5A60019B184603B05DF8EB
:1034C00004FB00BFEC6401083C65010800B583B053
:1034D00001900B4A019B1A600A4A019B5A600198AD
:1034E00000F02EF9019B04331846FFF7F1FD019B14
:1034F0001846FEF72DFA019B184603B05DF804FB51
:10350000EC6401083C650108A0F10400DEE700BF9F
:1035100000B583B001900198FFF7D8FF019801F042
:103520000BFD019B184603B05DF804FBA0F10400FD
:10353000EEE782B0019000BF02B0704782B0019008
:1035400000BF02B07047000000B585B00390029143
:10355000039B02991846FFF797FF039800F0F6F8CF
:10356000144A039B1A60144A039B5A60039B00226F
:103570005A61039B1149184600F0FBFF0246039B6A
:103580005A61039B5B69002B05D0039B5B6918465E
:1035900001F038FC09E0039B5B691A4600230093A5
:1035A00000230749074800F051FC039B184605B06B
:1035B0005DF804FB7C640108DC6401085C640108BC
:1035C000606401081901018000B583B001900B4AC5
:1035D000019B1A600A4A019B5A60019B5B6918466D
:1035E0000AF03AF8019800F0B7F8019B1846FFF787
:1035F0006DFF019B184603B05DF804FB7C64010875
:10360000DC64010882B001900023184602B07047C4
:1036100000B587B0039002910192029B0593059A31
:10362000019B13440493039B1B6850331B6803984E
:103630009847059A049B9A4215D0039B1B68483310
:103640001A68059B591C05911B78194603989047E9
:103650000346B3F1FF3F0CBF01230023DBB2002B75
:1036600000D1E6E700BF039B1B6854331B68039837
:103670009847059A029BD31A184607B05DF804FBD9
:1036800000B589B0039002910192029B0793079ABB
:10369000019B13440693039B1B6850331B680398DC
:1036A0009847079A069B9A4212D0039B1B684C339B
:1036B0001B68039898470590059BB3F1FF3F06D020
:1036C000079B5A1C0792059AD2B21A70E9E700BF0D
:1036D000039B1B6854331B6803989847079A029B07
:1036E000D31A184609B05DF804FB84B00390029128
:1036F00001920023184604B0704782B00190002365
:10370000184602B0704782B0019000BF02B0704707
:1037100082B001900023184602B0704782B0019039
:103720000023184602B0704782B00190002318466B
:1037300002B0704782B00190019B184602B07047FA
:1037400082B00190019B184602B0704782B0019090
:10375000019B184602B0704782B00190019B184649
:1037600002B0704700B583B001900D4B1B680D4A45
:10377000D3600D48FDF76AFB0346184601F09AFE38
:103780001C22084901980BF03DFA0748FDF75EFB43
:103790000346184601F0B6FE00BF03B05DF804FB17
:1037A000CC100020301000200010002000B583B0A5
:1037B0007346019000911A460099019800F006F8AE
:1037C0000346184603B05DF804FB000000B587B05F
:1037D000039002910192002305932948FDF736FBDF
:1037E0000346184601F066FE029B0833194603980B
:1037F0000AF0C8FE0490049B002B30D0049B029A70
:103800001A60049B1F4A5A60049B083305931E4BA1
:103810001A68029B13441C4A13601B4B9A68029B54
:103820001344194A9360184B1B690133164A1361FC
:10383000154B1A68144B5B689A4203D9124B1B68EC
:10384000114A5360104B9A69049B043B1B6823F098
:103850000101029BCB1A13440B4A936104E00A4B0B
:103860005B690133084A53610548FDF7EFFA0346E7
:10387000184601F047FE059B184607B05DF804FBAB
:1038800000100020EFBEADDE3010002000B589B082
:103890000390029101920023079300230693029B59
:1038A000002B05D0029B083B0593059B1B680693E4
:1038B000019B002B04D001980AF054FE03460793A5
:1038C000079B002B0FD0069A019B9A4201D2069BC0
:1038D00000E0019B0493049A029907980BF092F977
:1038E00002980AF047FE079B184609B05DF804FBF2
:1038F00000B583B07346019000911A460099019873
:1039000000F004F800BF03B05DF804FB00B589B017
:103910000390029101922348FDF798FA0346184656
:1039200001F0C8FD00230793029B002B2FD0029BC0
:10393000083B0793079B5B681B4A934223D1079B75
:103940001B680693079B043B1B6823F00103059348
:10395000079B00225A60154B1A68069BD31A134A1C
:103960001360124B1B69013B104A13610F4B9A699C
:103970000699059BCB1A13440C4A93610799039847
:103980000AF0DCF803E0029903980AF0D7F805483A
:10399000FDF75CFA0346184601F0B4FD00BF09B01C
:1039A0005DF804FB00100020EFBEADDE30100020FB
:1039B00000B587B003900291019200230593029B0A
:1039C000019A02FB03F318460AF0CCFD0346059367
:1039D000059B002B08D0029B019A02FB03F31A46B9
:1039E000002105980BF010FA059B184607B05DF80A
:1039F00004FB000000B587B005900491039200F02D
:103A0000C7F8039B0093049B00220599014800F02E
:103A10001DFA00BF4401FF8082B001900091009B1D
:103A2000002B05D0019B9B68019A12681A6004E084
:103A3000019BDB68019A12681A6000BF02B07047F0
:103A400000B58BB000F0A4F801AB1D211846FEF7BD
:103A50000EFC0023099312E001AB01211846FFF789
:103A6000DBFF154801F0ACFC01AB00211846FFF765
:103A7000D3FF114801F0A4FC099B01330993099B72
:103A8000032BE9DD0023089312E001AB0121184666
:103A9000FFF7C2FF094801F093FC01AB0021184673
:103AA000FFF7BAFF054801F08BFC089B0133089330
:103AB000089B032BE9DDCCE7F0490200801A0600E1
:103AC0000FB400B583B005AB01930199049800F0E1
:103AD00007F800BF03B05DF804EB04B070470000C6
:103AE00000B5A5B00190009102A8009B019A842125
:103AF0000FF0A6F92390239B832B06D902AB7F33CB
:103B00000522074918460BF07DF8239B002B03DDA7
:103B100002AB184600F006F800BF25B05DF804FBC4
:103B20004465010800B583B0019000F031F80198B8
:103B30000BF026FD03461A460199022000F012FF01
:103B400000F040F800BF03B05DF804FB82B0EFF373
:103B500010830193019B03F00103002B0CBF012391
:103B60000023DBB2184602B0704782B0EFF3058342
:103B70000193019B002B14BF01230023DBB21846E5
:103B800002B0704708B5FEF72FFB0346184608BD84
:103B900008B5094B1B68B3F1FF3F04D15122074917
:103BA0000748FFF727FFFEF7E3FA034B1B680133D3
:103BB000014A136000BF08BD4C1000204C6501088D
:103BC0007065010808B5094B1B68002B0BD0074B2B
:103BD0001B68013B054A1360044B1B68002B03D193
:103BE000FEF7E4FA00E000BF08BD00BF4C10002063
:103BF00088B00190019B0493049BD3E84F3F03934B
:103C0000039BDBB28DF81F30019B01228DF81E2033
:103C100006939DF81E200699C1E8432F0593059B46
:103C2000002BE7D19DF81F30002B14BF0123002388
:103C3000DBB2184608B0704788B001900B46ADF86B
:103C40000230019B0493049BD3E85F3F0393039BE3
:103C50009AB2BDF802301344ADF81E30BDF81E30E4
:103C6000ADF81C30019B0693BDF81C200699C1E8F5
:103C7000532F0593059B002BE3D1BDF81E3018464A
:103C800008B0704788B001900B46ADF80230019B38
:103C90000493049BD3E85F3F0393039B9AB2BDF860
:103CA0000230D31AADF81E30BDF81E30ADF81C300E
:103CB000019B0693BDF81C200699C1E8532F05937C
:103CC000059B002BE3D1BDF81E30184608B07047A5
:103CD00008B50F48FFF78CFF0346002B05D0FFF710
:103CE00057FFBFF34F8F20BFFDE7FFF73EFF0346AF
:103CF000002B07D1FFF72AFF034683F00103DBB255
:103D0000002B01D0FFF79CFE012001F06BF800BFF3
:103D1000541000200FB410B584B074460F48FFF75C
:103D200067FF034683F00103DBB2002B13D0234669
:103D30000093002300220021094800F017F8002317
:103D400000220849084800F0B3F807AB0393039931
:103D50000698FFF7C5FEFFF7BBFF00BF501000201D
:103D60000001FF80A46501089010002000B593B009
:103D70000390029101920093039B002B01DB224BE5
:103D8000039304AB3422002118460BF03DF8039B4B
:103D90000493149B0593029B06931C4B5B69119340
:103DA000119B0793119BDB6B0893119B5B6B099332
:103DB000119B1B6B0A9304AB0B93FFF7E9FE144BAB
:103DC0001B680133124A1360114B1B68012B05D18C
:103DD00004AB342219460F480AF014FF04AB342216
:103DE00019460D480AF00EFF0C4B1B68002B03D040
:103DF0000A4B1B6808489847FFF7E4FE0023184663
:103E000013B05DF804FB00BF0101FF809C0200209D
:103E1000581000205C10002090100020C4100020DA
:103E200000231846704710B586B07446059004917B
:103E30000392029323460093089B029A03990598E4
:103E4000FFF794FF0346184606B010BD10B586B0C4
:103E5000744605900491039202930C48FFF7C8FE44
:103E6000034683F00103DBB2002B0DD02346009301
:103E7000089B029A03990598FFF778FF089B029A1E
:103E80000499034800F014F8FFF722FF50100020B7
:103E90009010002082B00190019B002B01D0019B6B
:103EA00000E0024B184602B0704700BFBC65010835
:103EB00030B58BB00790069105920493079B1B6861
:103EC0005B1703F00303032B03D1079B1B685B42C3
:103ED00002E0079B1B689BB20993079B1B681B149E
:103EE000DBB20893079B1968089B099A5948FFF7AA
:103EF000E7FD099BA3F23113132B67D801A252F8F7
:103F000023F000BF553F0008633F0008713F0008E1
:103F10007F3F00088D3F0008A93F00089B3F000835
:103F2000B73F0008CD3F0008CD3F0008CD3F000857
:103F3000CD3F0008CD3F0008CD3F0008CD3F000831
:103F4000CD3F0008CD3F0008CD3F0008CD3F000821
:103F5000C53F0008079B9B6819463F48FFF7B0FD27
:103F600035E0079B9B6819463C48FFF7A9FD2EE00A
:103F7000079B9B6819463A48FFF7A2FD27E0079B7D
:103F80009B6819463748FFF79BFD20E0079B9B681D
:103F900019463548FFF794FD19E0079B9B681946C1
:103FA0003248FFF78DFD12E0079B9B6819463048A9
:103FB000FFF786FD0BE0079B9B6819462D48FFF72E
:103FC0007FFD04E02C48FFF77BFD00E000BF069872
:103FD000FFF7A8FD079B5B6819462848FFF770FDAF
:103FE000059B002B09D02648FFF79CFD0598FFF79D
:103FF00099FD04992348FFF763FD079B9B681946C9
:104000002148FFF75DFD079BDB685B681846FFF7FB
:1040100041FF0546079BD868079B1C69079B5B69A6
:10402000079A92690799C969029101920093234600
:10403000024629461548FFF743FD079B1B681946B2
:104040001348FFF73DFD1348FFF73AFD00BF0BB0E3
:1040500030BD00BFC86501081C6601083466010850
:104060004466010854660108686601087C66010818
:1040700090660108A0660108B8660108CC660108D0
:10408000E0660108E8660108EC66010800670108BF
:1040900058670108A467010808B5074B1B68002B87
:1040A00007D0054B1B684FF0FF31184603F014FE94
:1040B00000E000BF08BD00BFA81A002008B5064BED
:1040C0001B68002B05D0044B1B68184603F02EFE1E
:1040D00000E000BF08BD00BFA81A002000B585B0F1
:1040E00001901348FCF7B2FE0346184601F0E2F9CE
:1040F00000230393039B3F2B0FD80E4A039B52F8D8
:104100002330019A9A4204D10A4A039B002142F8C3
:104110002310039B01330393ECE70548FCF796FE5D
:104120000346184601F0EEF900BF05B05DF804FB48
:10413000501100209401002084B00390029101925C
:104140006FF01C03184604B0704782B001906FF006
:104150001503184602B0704782B00190012318463B
:1041600002B0704782B001900023184602B0704739
:1041700000B585B0039001930B46ADF80A301346A5
:10418000ADF80830039B1846FDF720FC0C4A039B52
:104190001A600C4B1B68002B0CD1BDF90820BDF92F
:1041A0000A301946084808F015FE0199064808F03B
:1041B0001FFF00E000BF039B184605B05DF804FB3D
:1041C00074690108CC190020082D002000B587B0C3
:1041D000039002910192029B049300230593059A98
:1041E000019B9A420BD2049A059B13441B781946F3
:1041F000054807F0A5FE059B01330593EFE7019BFA
:10420000184607B05DF804FB082D002000B587B004
:10421000039002910192029B0593019B002B01D117
:10422000002307E0054807F05FFE0346DAB2059B6E
:104230001A700123184607B05DF804FB082D002012
:1042400000B585B001900B46ADF802300023ADF803
:104250000E30BDF8023003F00103002B07D01748E1
:1042600008F036FF0346002B01D0012300E00023B5
:10427000002B05D0BDF80E3043F00103ADF80E3031
:10428000BDF8023003F01003002B07D00B4808F0F4
:1042900047FF0346002B01D0012300E00023002B41
:1042A00005D0BDF80E3043F01003ADF80E30BDF967
:1042B0000E30184605B05DF804FB00BF082D002045
:1042C00082B001900023184602B0704782B001907E
:1042D0000023184602B0704708B5154B1B78BFF392
:1042E0005B8FDBB203F00103002B0CBF0123002323
:1042F000DBB2002B19D00E4800F0A4FD0346002BC2
:1043000014BF01230023DBB2002B0ED04FF4165351
:10431000032202210748FFF72BFF054800F0C8FDE4
:10432000054A0649034800F055FD024B184608BDF2
:104330008411002080110020880100204D4F0008CA
:1043400000B585B001900198FFF7C0FF0390039B73
:10435000002B01D0039B0CE00198FFF7B1FF039005
:10436000039B002B01D0039B03E0FFF7B5FF03463F
:1043700000BF184605B05DF804FB000000B585B02D
:104380000190019B3F2B01DD002315E00C4A019BAE
:1043900052F823300393039BB3F1FF3F0BD1019BF2
:1043A000022B08DC0198FFF7CBFF03900449019B27
:1043B000039A41F82320039B184605B05DF804FBDF
:1043C0009401002000B583B00190009109F0D6F867
:1043D0000246019B5B421360054A009B002142F8A4
:1043E00023104FF0FF33184603B05DF804FB00BF05
:1043F0009401002084B00190019B0393039B23F45C
:1044000000430393039B184604B0704700B583B084
:104410001D48FCF71BFD0346184601F04BF803232B
:104420000193019B3F2B0ADC184A019B52F8233071
:10443000002B03D0019B01330193F2E700BF019BE6
:104440003F2B0EDD09F09AF80246182313600E4840
:10445000FCF7FCFC0346184601F054F84FF0FF331C
:104460000DE00A4A019B4FF0FF3142F82310064845
:10447000FCF7ECFC0346184601F044F8019B184693
:1044800003B05DF804FB00BF501100209401002030
:1044900000B585B00190FFF7B9FF0390039B002B97
:1044A00001DA039B0FE00A49039B019A41F823209C
:1044B000084A039B134400221A70074A039B1344C3
:1044C00000221A70039B184605B05DF804FB00BF7C
:1044D00094010020D01000201011002000B583B0FE
:1044E000019000910C4A019B52F82330009A9A42A5
:1044F00006D1094A019B002142F82310002306E05F
:1045000009F03CF80246092313604FF0FF331846C8
:1045100003B05DF804FB00BF9401002000B587B034
:104520000190009140238DF80C3003AB013301A9B9
:10453000042218460AF066FB03AB0099184609F0FE
:10454000A5FA0590059B002B08D0019B184600F0AA
:1045500012FB0346002B01D0012300E00023002BB7
:1045600002D0059800F04EFC059B184607B05DF898
:1045700004FB00B585B0019000910198FFF788FF1A
:104580000390039B002B01D100230CE000990398BA
:10459000FFF7C4FF0290029B002B03D101990398FF
:1045A000FFF79CFF029B184605B05DF804FB000076
:1045B00000B585B001900091264901980AF064FE8B
:1045C0000346002B0CBF01230023DBB2002B04D0D9
:1045D0000020FFF7D3FE002338E01F4901980AF0BE
:1045E00053FE0346002B0CBF01230023DBB2002B3C
:1045F00004D00120FFF7C2FE012327E017490198EC
:104600000AF042FE0346002B0CBF01230023DBB25D
:10461000002B04D00220FFF7B1FE022316E0019B1D
:104620001B78402B08D1019B591C03AB0422184670
:104630000AF0E8FA039B09E00098FFF7DBFE034667
:104640001946019800F00CF8034600BF184605B063
:104650005DF804FBC0670108C8670108D06701085E
:104660000EB410B589B00190FFF7D0FE0790079BFC
:10467000002B01DA079B5EE00023049302AB019953
:104680001846FEF73BFE02AB1846FEF7F0FE034667
:1046900083F00103DBB2002B07D0079B19466FF0B4
:1046A0001200FFF78FFE034645E002AB1846FEF707
:1046B000AEFE0346002B06D002AB1846FEF7BFFE47
:1046C0000346049327E002AB1846FEF788FE0690E7
:1046D000069B002B07D1079B19466FF01200FFF7CE
:1046E00071FE034627E0069B1B6808331C6802AB7B
:1046F0001846FEF755FE024604A90B9B0698A047F4
:104700000590059B002B06D0079B19460598FFF7DF
:1047100059FE03460FE0049A0A49079B41F82320FB
:10472000094A079B134400221A70084A079B134446
:1047300000221A70079B184609B0BDE8104003B06C
:10474000704700BF94010020D010002010110020FD
:1047500000B583B00190019800F006F803461846B2
:1047600003B05DF804FB000000B585B0019001982E
:10477000FFF704FE0390144A019B002142F8231026
:10478000039B002B07D108F0F9FE024609231360B2
:104790004FF0FF3313E0039B1B6814331B6803982F
:1047A00098470290029B002B08DA08F0E7FE0246C9
:1047B000029B5B4213604FF0FF3300E0002318467A
:1047C00005B05DF804FB00BF9401002082B00190A9
:1047D0000023184602B0704700B58DB005900491D3
:1047E00003920293FFF7C1F90346002B07D1FFF7AD
:1047F000ADF9034683F00103DBB2002B01D00123A6
:1048000000E00023002B07D0059A0023009300232B
:1048100050495148FFF71AFB039B002B07DA08F0B9
:10482000ADFE0246162313604FF0FF338DE0039B6D
:10483000089300230B930598FFF7C8FF0346002B4E
:1048400056D0464A059B13441B788DF82B30002325
:104850000993099A089B9A424ADA099B049A1344DD
:104860001B780A2B3AD19DF82B300D2B36D0099AA4
:104870000B9B9A421EDD0B9B049AD118099A0B9B45
:10488000D31A1A46059800F06DF80790079B002B85
:1048900002DA4FF0FF3358E00B9A079B13440B9357
:1048A0000B9A099B9A424ADB2C4A059B13449DF8BC
:1048B0002B201A7001222A49059800F053F807901E
:1048C000079B002B02DA4FF0FF333EE0079B002BE3
:1048D00037DD224A059B13440D221A70099B049A66
:1048E00013441B788DF82B30099B01330993B0E7F3
:1048F0000B9A089B9A4226DA0B9B049AD118089AC5
:104900000B9BD31A1A46059800F02CF80690069BCC
:10491000002B02DA4FF0FF3317E00B9A069B13448B
:104920000B930B9B002B0FDD0B9B013B049A134455
:1049300019780A4A059B13440A461A7004E000BF1E
:1049400002E000BF00E000BF0B9B18460DB05DF811
:1049500004FB00BFD86701082F010180101100205F
:104960001468010800B587B0039002910192039882
:10497000FFF704FD0590059B002B07D108F0FEFD15
:104980000246092313604FF0FF3315E0059B1B68B7
:104990000C331B68019A0299059898470490049B70
:1049A000002B08DA08F0EAFD0246049B5B42136024
:1049B0004FF0FF3300E0049B184607B05DF804FB9E
:1049C00000B58BB00590049103920293FFF7CDF8E8
:1049D0000346002B07D1FFF7B9F8034683F0010324
:1049E000DBB2002B01D0012300E00023002B07D015
:1049F000059A0023009300233F494048FFF726FA19
:104A0000039B002B07DA08F0B9FD0246162313605A
:104A10004FF0FF336BE0002309930598FFF7D6FEB4
:104A20000346002B5CD00DF11F03012219460598A7
:104A300000F068F80890089B002B02DA4FF0FF3373
:104A400055E0089B002B01D1099B50E09DF81F30D9
:104A50000D2B05D12A4A059B13441B780A2B09D13B
:104A60009DF81F300A2B10D1254A059B13441B7853
:104A70000D2B0AD09DF81F10214A059B13440A46AE
:104A80001A70049B0A221A7027E09DF81F300D2B24
:104A900005D11B4A059B13441B780A2B09D09DF8AE
:104AA0001F300A2B0DD1164A059B13441B780D2B82
:104AB00007D19DF81F10124A059B13440A461A702D
:104AC000B1E79DF81F100E4A059B13440A461A7061
:104AD0009DF81F20049B1A7000BF0123099305E075
:104AE000039A0499059800F00DF80990099B18465F
:104AF0000BB05DF804FB00BF186801082F010180AE
:104B0000D010002000B587B0039002910192039865
:104B1000FFF734FC0590059B002B07D108F02EFD14
:104B20000246092313604FF0FF3315E0059B1B6815
:104B300008331B68019A0299059898470490049BD2
:104B4000002B08DA08F01AFD0246049B5B42136052
:104B50004FF0FF3300E0049B184607B05DF804FBFC
:104B600000B583B00190019800F005F8034618469F
:104B700003B05DF804FB00B585B001900198FFF724
:104B8000FDFB0390039B002B06D108F0F7FC0246C7
:104B900009231360002312E0039B1B681C331B686E
:104BA000039898470290029B002B07DA08F0E6FC76
:104BB0000246029B5B421360002300E0029B184602
:104BC00005B05DF804FB00B587B003900291019237
:104BD000019A0299039800F006F80590059B184683
:104BE00007B05DF804FB00B587B003900291019215
:104BF0000398FFF7C3FB0590059B002B07D108F036
:104C0000BDFC0246092313604FF0FF3315E0059BFE
:104C10001B6810331B68019A029905989847049005
:104C2000049B002B08DA08F0A9FC0246049B5B42B7
:104C300013604FF0FF3300E0049B184607B05DF8A7
:104C400004FB00B585B001900198FFF797FB039036
:104C5000039B002B07D108F091FC02460923136047
:104C60004FF0FF3313E0039B1B6818331B68039856
:104C700098470290029B002B08DA08F07FFC02465E
:104C8000029B5B4213604FF0FF3300E000231846A5
:104C900005B05DF804FB00B583B001900091009968
:104CA000019800F005F80346184603B05DF804FBD0
:104CB00000B585B0019000910198FFF75FFB03906C
:104CC000039B002B07D108F059FC0246092313600F
:104CD0004FF0FF3319E0039B1B681C331B680398DC
:104CE00098470346002B02D04FF4005201E04FF4E6
:104CF0000042009B5A60039B1B6828331B68039883
:104D000098470246009B1A610023184605B05DF8DB
:104D100004FB08B5012000F065F8000086B00190A2
:104D2000194B1B680593184B1A68019B1344049395
:104D3000EFF308830393039B1A46049B93422CBF13
:104D400001230023DBB2002B05D0104B0C221A608C
:104D50004FF0FF3315E00E4B1B68002B0DD00D4BB1
:104D60001A680B4B1B681344049A9A4205D3074BED
:104D70000C221A604FF0FF3303E0034A049B1360D8
:104D8000059B184606B0704794020020C42D0020F1
:104D9000CC100020C810002000B583B001900C4B4F
:104DA0001B689B68184608F033FD094B1B68DB68DD
:104DB000184608F02DFD0120FFF743FF0220FFF702
:104DC00040FF019B002B01D0FEF73AFEFEE700BF3B
:104DD0004403002084B003900291019201231846FD
:104DE00004B0704700B583B001900198FFF7D4FF7D
:104DF00000BF03B05DF804FB82B0019001231846A8
:104E000002B0704700B583B00190002101980AF00C
:104E10001DF900BF03B05DF804FB00B583B001903D
:104E2000019800F0CFFD00BF03B05DF804FB00B5B2
:104E300083B00190019800F0D5FD00BF03B05DF88C
:104E400004FB000000B585B00190019B0393039B18
:104E50001B7803F00303012B01D100231FE0FFF7B0
:104E60001BF9039B1B7803F00303012B03D1FFF70E
:104E700025F9002313E0039B1B7803F00303002BA9
:104E800005D040F28C5208490848FEF7B3FD039B59
:104E90001B7843F00203DAB2039B1A700123184611
:104EA00005B05DF804FB00BF606801088868010870
:104EB00000B585B00190019B0393039B1B7803F021
:104EC0000303022B05D040F294520B490B48FEF726
:104ED00091FD039B1B785BB223F003035BB243F0AD
:104EE00001035BB2DAB2039B1A70FFF7E7F800BF69
:104EF00005B05DF804FB00BF60680108B0680108F8
:104F000000B587B00390039809F02CFB0346059386
:104F1000059B002B07D1002300930023039A04492B
:104F20000448FEF793FF059B184607B05DF804FBA5
:104F3000106901081F01018000B583B0019001983C
:104F400009F018FB00BF03B05DF804FB00B583B0A7
:104F50000190064A019B1A60019B1846FCF7F8FC79
:104F6000019B184603B05DF804FB00BF746901089B
:104F700000B583B001900198FFF7E8FF0198FFF7B3
:104F8000DBFF019B184603B05DF804FB10B5094B2D
:104F90001B68002B04D1FDF78DF90246054B1A6002
:104FA000044B1B681846FDF7ABFF03460C4618463A
:104FB000214610BDA011002070B4074BD3E90012A8
:104FC000064BD3E90034CD1842EB04062B46344699
:104FD0001846214670BC704790110020981100209F
:104FE00010B5FFF7D3FF03460C461846214610BD07
:104FF00010B4044BD3E90034184621465DF8044B45
:10500000704700BF9011002010B4044BD3E9003466
:10501000184621465DF8044B704700BF98110020E8
:1050200000B583B0FEF7B4FD0D4B1B884FF6FF7241
:1050300093420BD1FEF7C6FD094B1B881A4600238D
:105040000093002307490848FEF700FF01210448A8
:10505000FEF7F2FDFEF7B6FD00BF03B05DF804FBFE
:1050600088110020BC6901082301048000B583B0C9
:10507000FEF78EFD0C4B1B88002B0BD1FEF7A2FD1B
:10508000094B1B881A460023009300230749084850
:10509000FEF7DCFE01210448FEF7F4FDFEF792FD69
:1050A00000BF03B05DF804FB88110020E46901082B
:1050B000240104802DE9F04F87B0FEF769FDFFF76A
:1050C00065FFCDE9040100238DF80F3008F0FAF8F0
:1050D000FFF75CFFCDE900019DF80F30002B11D0E8
:1050E000DDE90012DDE90434CE1A62EB0407114B4E
:1050F000D3E9003416EB030A47EB040B0D4BC3E96D
:1051000000AB10E0DDE90001DDE90423841A61EB66
:105110000305094BD3E9002314EB020845EB03090F
:10512000054BC3E90089FEF74DFD00BF07B0BDE8A0
:10513000F08F00BF981100209011002010B582B0B0
:105140000190019B002B04D1162214491448FEF74C
:1051500051FC20220021019809F056FEFFF740FF84
:1051600003460C46019AC2E90034FFF725FF0346C7
:105170000C46019AC2E90234FFF73AFF03460C4697
:10518000019AC2E90434FFF73FFF03460C46019A37
:10519000C2E9063400BF02B010BD00BF046A0108B6
:1051A000286A010810B584B001900091019B002B82
:1051B00004D1642251495248FEF71CFC009A134660
:1051C0005B001344DB001A460021019809F01CFE25
:1051D00000230393009B9B00184609F0C3F9034684
:1051E0000293029B002B04D16C2244494548FEF7F0
:1051F00001FC01F099FA0099029804F049F8009036
:10520000002303936DE0039B9B00029A13441968EB
:10521000039A13465B001344DB001A46019B1344B8
:105220000A461A60039B9B00029A13441B681846A7
:1052300003F09CFF0146039A13465B001344DB0016
:105240001A46019B13440A465A60039B9B00029A2C
:1052500013441B68184603F0EBFF0146039A1346FC
:105260005B001344DB001A46019B13440A469A6014
:10527000039B9B00029A13441968039A13465B0030
:105280001344DB001A46019B9C18084603F090FF6C
:105290000346E360039B9B00029A13441968039A38
:1052A00013465B001344DB001A46019B9C1808461A
:1052B00003F09EFF03462361039B9B00029A134465
:1052C0001968039A13465B001344DB001A46019BDE
:1052D0009C18084603F00EFF03466361039B0133ED
:1052E0000393039A009B9A428DD301F03DFA0298F2
:1052F00009F040F9039B184604B010BD046A010888
:10530000286A0108386A010800B583B00190019B42
:10531000002B04D1812211491148FEF76BFB50226A
:105320000021019809F070FD019B4CF2A1721A60F6
:10533000019B4FF000621A63019B4FF480221A64B4
:10534000084B1A68019B5A60019B02221A72019B4A
:10535000054ADA6000BF03B05DF804FB046A010887
:10536000286A010800ED00E04839010000B585B069
:105370000390FEF7FAFB0346002B07D1FEF7E6FB8E
:10538000034683F00103DBB2002B01D0012300E0D0
:105390000023002B07D0002300930023002206499E
:1053A0000648FEF753FD039B184604F099F800BF2A
:1053B00005B05DF804FB00BF486A010806010180E2
:1053C00000B587B00390039B42F21072934207DD51
:1053D00000230093002300220E490F48FEF723FD0F
:1053E000FDF7A8FD05900598FDF77FFD0490059851
:1053F000FDF77BFD0246049BD21A039B9A4234BF01
:1054000001230023DBB2002B00D0F0E700BF07B080
:105410005DF804FB906A01080001018000B583B0CB
:105420000190019800F0A0F8019B00221A6200216F
:10543000019800F005F8019B184603B05DF804FBE5
:1054400000B587B001900091019B04331C2200211C
:10545000184609F0D9FC02AB00221A605A609A6023
:10546000DA60009B002B01D0009B00E00E4B029302
:10547000019B043304931C2305930B23039302AB7A
:10548000184602F003FC0246019B1A60019B1B6850
:10549000002B04D1332205490548FEF7ABFA00BFC3
:1054A00007B05DF804FB00BFD06A0108EC6A010890
:1054B000086B010800B587B00390039B1B684FF091
:1054C000FF31184602F008FC0590059B002B04D123
:1054D000039B1B6A5A1C039B1A62059B002B07D077
:1054E000059A00230093002304490548FEF7AEFC0B
:1054F0000023184607B05DF804FB00BF0C6B0108E1
:105500001501028000B587B00390039B1B6A5A1EE9
:10551000039B1A62039B1B68184602F007FC059068
:10552000059B002B07D0059A002300930023044914
:105530000448FEF78BFC0023184607B05DF804FB17
:10554000206B01081701028000B583B00190019B18
:105550001B68184602F010FC019800F00BF8019B44
:10556000184603B05DF804FB82B00190019B184619
:1055700002B0704782B00190019B184602B070479C
:1055800010B582B00190019CFCF794FE03461946C9
:105590002046FCF761F9019800F093F9134A019B4A
:1055A0001A60019A4FF000034FF00004C2E908347A
:1055B000019A4FF000034FF00004C2E90A34019B46
:1055C0009B691846FDF79CFC03460C46019AC2E90C
:1055D0000834019B012283F83020019B002283F8CC
:1055E0003120019B184602B010BD00BF3C6B010882
:1055F00008B5044B5B680449184603F03DFF00BF43
:1056000008BD00BFA06D01080D5F000800B583B0A4
:1056100001900091FEF7BCFA019B1846FCF77CF95B
:105620000099019800F08CF8019B002283F830204B
:10563000019B012283F83120FEF7C4FA00BF03B0BA
:105640005DF804FB82B00190019B93F8303018465E
:1056500002B070472DE9F04186B00190FEF798FA4C
:10566000019B002283F83120019B012283F8302026
:10567000019B1846FCF750F9019B9B691846FDF702
:105680003FFC0A460146019BD3E90834CD1A62EB80
:1056900004062B4634464FF000014FF00002620131
:1056A00042EAD36259010B4614465B1B64EB0604C5
:1056B0004FF000014FF00002A20042EA93729900FD
:1056C0000B4614465B1946EB04044FF000014FF003
:1056D0000002E20042EA5372D9000B461446184613
:1056E0002146164A4FF000030FF0E8FD03460C4632
:1056F000CDE90434019BD3E90A12DDE90434A24266
:1057000008BF994207D2DDE9043413F1FF3744F1B1
:10571000FF38CDE90478049A019BD3E90A34D31AFF
:105720000393019ADDE90434C2E90A34FEF74AFA28
:10573000039B184606B0BDE8F08100BF40420F0051
:105740002DE9F04786B005900491FEF721FA059BFC
:105750000393059BD3E90878059BD3E90A12049BC0
:105760004FF00004CD1842EB04062B4634464FF0B0
:1057700000014FF00002620142EAD36259010B4678
:1057800014465B1B64EB06044FF000014FF000026F
:10579000620242EAD35259020B4614465B1946EBA9
:1057A00004044FF000014FF00002A20142EA9362AC
:1057B0009901C91A62EB04024C19009472410192DA
:1057C0004FF47A724FF00003DDE900010FF076FD2F
:1057D00003460C4617EB030948EB040A4A465346B6
:1057E0000398FCF785F8FEF7EDF900BF06B0BDE8B9
:1057F000F08700B583B00190FEF7CAF9019B184607
:10580000FCF78AF8FEF7DEF900BF03B05DF804FB91
:1058100000B583B00190074A019B1A60019800F01F
:1058200056F8019B1846FCF74FF8019B184603B049
:105830005DF804FB3C6B010800B583B00190019852
:10584000FFF7E6FF0198FFF777FB019B184603B0CF
:105850005DF804FB024B4FF080625A6000BF704756
:1058600000ED00E010B483B00190019BD3E90A344D
:10587000591C44F10002019BC3E90A1200BF03B0A6
:105880005DF8044B704700B583B00190FEF780F9D6
:10589000019B93F83130002B04D0019B012283F847
:1058A000302008E0FFF7D6FF0198FFF7DBFF01216A
:1058B0000198FFF745FFFEF785F900BF03B05DF8DB
:1058C00004FB82B00190019B184602B0704782B081
:1058D0000190019B184602B07047000000B583B0EC
:1058E000134B0193124BC3F1005303F58033009324
:1058F000009BB3F5806F28BF4FF480630D4A13609F
:105900000C4B1B68009AD31A019A13440A4A13607D
:10591000084B1B68009AD31A0093084A009B136037
:10592000074A019B136000F06BF800F0ABF800BF72
:10593000C82D00200812002004120020CC100020E6
:10594000C810002008B5144B144A1A60124B0B22E1
:105950005A60114B1C22DA600F4B114A9A600E48B4
:1059600002F094F902460F4B1A600F4B0F4A1A606F
:105970000D4B0B225A600C4B1C22DA600A4B0C4A6E
:105980009A60094802F082F902460A4B1A6008F050
:1059900045FD00BF08BD00BFC4110020486B0108D1
:1059A000A8110020A4110020F4110020586B010858
:1059B000D8110020D411002008B5FAF793FE034651
:1059C000184608BD00B583B00190054B1B684FF029
:1059D000FF31184602F080F900BF03B05DF804FB08
:1059E000A411002000B583B00190044B1B68184639
:1059F00002F09CF900BF03B05DF804FBA411002085
:105A000008B5FDF7C9FA00F013F806F063FF00F0DF
:105A100033F800BF08BD08B5FFF794FF00F006F8A3
:105A2000FEF7FEF9FFF7C8FF00BF08BD00BF7047D3
:105A300084B0104B9B6802934FF0005301930023F6
:105A400003930CE0039B9B00029A1A44039B9B0068
:105A500001990B4412681A60039B01330393039B63
:105A6000612BEFDD034B4FF000529A6000BF04B092
:105A7000704700BF00ED00E008B500F013FE00BF66
:105A800008BD000000B585B01F4B204A1A601E4BB0
:105A90000B225A601C4B1C22DA601B4B1C4A9A607A
:105AA0001C4B1D4A1A611B4B4FF480525A61194B13
:105AB0004422DA60174B194A9A60164B18229A61F1
:105AC000144B174A1A60104802F0E0F80246154BD2
:105AD0001A60104A0021144803F0DCFA0390039B7B
